:100000000C9434000C943E000C943E000C943E0082
:100010000C943E000C943E000C943E000C943E0068
:100020000C943E000C943E000C943E000C943E0058
:100030000C943E000C943E000C943E000C943E0048
:100040000C943E000C943E000C943E000C943E0038
:100050000C943E000C943E000C943E000C943E0028
:100060000C943E000C943E0011241FBECFEFD8E04C
:10007000DEBFCDBF0E943D020C94E1030C94000052
:1000800000C000C000C000C000C000C00000089553
:10009000549855985C985D980895549AF1DF1DD056
:1000A0000895559AEDDF5498EBDF5598E9DF549A9F
:1000B000E7DF13D00895082E549AE2DF802D0DD08B
:1000C000882311F002D0F8CF0895559A549AD8DFBA
:1000D0005598D6DF5498D4DF08950894881F01C03E
:1000E000880F59F0559A18F40000549802C0549A99
:1000F00000C0C6DF5598C4DFF3CF559A5498C0DFCF
:1001000055984D9BFECF88274C9981E0B9DF992700
:100110000895882701C081E071E0559A5498B0DFB6
:100120005598AEDF4D9BFECF88944C990894771F6D
:10013000A0F7559A813011F0549801C0549AA0DF6D
:1001400055984D9BFECF9CDF872F99270895CF931D
:10015000DF93CDB7DEB7A4970FB6F894DEBF0FBE1E
:10016000CDBF9CA38BA38BA19CA12AE030E0B90159
:100170000E946102CB019C838B838BA19CA12AE00E
:1001800030E0B9010E9461029E838D831A82198238
:1001900077C080E090E0A0E2B1E48F839887A987E0
:1001A000BA8720E030E04AE755E46F817885898599
:1001B0009A850E944C03DC01CB018B879C87AD871D
:1001C000BE8720E030E040E85FE36B857C858D856D
:1001D0009E850E94890288232CF481E090E0988B10
:1001E0008F873FC020E03FEF4FE757E46B857C856A
:1001F0008D859E850E94470318164CF520E030E05F
:1002000040E251E46F81788589859A850E944C038C
:10021000DC01CB01BC01CD010E948E02DC01CB01CF
:10022000988B8F870FC080E991E09A8B898B8989A1
:100230009A890197F1F79A8B898B8F859889019715
:10024000988B8F878F859889892B69F714C06B8568
:100250007C858D859E850E948E02DC01CB01988B6A
:100260008F878F8598899C8B8B8B8B899C89019735
:10027000F1F79C8B8B8B89819A8101969A83898374
:1002800029813A818B819C81281739070CF481CF11
:100290008D819E81092E000CAA0BBB0BBC01CD01E8
:1002A0000E94BF02DC01CB018D8B9E8BAF8BB88F80
:1002B00020E030E04AE755E46D897E898F89988D8A
:1002C0000E944C03DC01CB01898F9A8FAB8FBC8FCE
:1002D00020E030E040E85FE3698D7A8D8B8D9C8D66
:1002E0000E94890288232CF481E090E09E8F8D8FFC
:1002F0003FC020E03FEF4FE757E4698D7A8D8B8D4B
:100300009C8D0E94470318164CF520E030E040E237
:1003100051E46D897E898F89988D0E944C03DC01A0
:10032000CB01BC01CD010E948E02DC01CB019E8F6E
:100330008D8F0FC080E991E098A38F8F8F8D98A14A
:100340000197F1F798A38F8F8D8D9E8D01979E8FCA
:100350008D8F8D8D9E8D892B69F714C0698D7A8D57
:100360008B8D9C8D0E948E02DC01CB019E8F8D8F28
:100370008D8D9E8D9AA389A389A19AA10197F1F7EA
:100380009AA389A30000A4960FB6F894DEBF0FBE0F
:10039000CDBFDF91CF910895CF93DF93CDB7DEB777
:1003A00085E290E02FEFFC0120838BE290E02FEFBD
:1003B000FC0120830000DF91CF910895CF93DF935C
:1003C00000D000D0CDB7DEB78B836C8386ED0E9462
:1003D0005B008B810E946D0087ED0E946D000E9482
:1003E0008900882F90E0982F88279A8389830E941C
:1003F000650086ED0E945B008C810E946D000E946A
:10040000650087ED0E945B0080E40E946D000E9401
:100410008900882F90E029813A81822B932B9A833F
:1004200089830E94650089819A810F900F900F90B7
:100430000F90DF91CF910895CF93DF93CDB7DEB7C3
:1004400069E288E20E94DE01DF91CF910895CF93A7
:10045000DF93CDB7DEB76BE28AE20E94DE01DF9167
:10046000CF910895CF93DF93CDB7DEB76DE28CE2E5
:100470000E94DE01DF91CF910895CF93DF9300D0EA
:10048000CDB7DEB78AE290E02FEFFC01208384E253
:1004900090E02FEFFC0120838BE290E0FC011082C2
:1004A00085E290E0FC0110820E9448000E941C023C
:1004B0009A83898380E090E00F900F90DF91CF9135
:1004C000089597FB072E16F4009407D077FD09D006
:1004D0000E94750207FC05D03EF4909581959F4FD0
:1004E0000895709561957F4F0895AA1BBB1B51E13C
:1004F00007C0AA1FBB1FA617B70710F0A61BB70B94
:10050000881F991F5A95A9F780959095BC01CD0138
:1005100008950E94FA0208F481E008950E942603DB
:1005200088F09F5798F0B92F9927B751B0F0E1F0B4
:10053000660F771F881F991F1AF0BA95C9F714C064
:10054000B13091F00E944003B1E008950C94400353
:10055000672F782F8827B85F39F0B93FCCF386959D
:1005600077956795B395D9F73EF4909580957095FA
:1005700061957F4F8F4F9F4F0895E89409C097FB77
:100580003EF490958095709561957F4F8F4F9F4F6A
:100590009923A9F0F92F96E9BB279395F6958795AE
:1005A00077956795B795F111F8CFFAF4BB0F11F471
:1005B00060FF1BC06F5F7F4F8F4F9F4F16C0882318
:1005C00011F096E911C0772321F09EE8872F762F4E
:1005D00005C0662371F096E8862F70E060E02AF08F
:1005E0009A95660F771F881FDAF7880F969587957B
:1005F00097F90895990F0008550FAA0BE0E8FEEF50
:1006000016161706E807F907C0F012161306E407D6
:10061000F50798F0621B730B840B950B39F40A26CF
:1006200061F0232B242B252B21F408950A2609F4AD
:10063000A140A6958FEF811D811D089557FD90580B
:10064000440F551F59F05F3F71F04795880F97FB96
:10065000991F61F09F3F79F0879508951216130650
:100660001406551FF2CF4695F1DF08C0161617067F
:100670001806991FF1CF86957105610508940895B4
:10068000E894BB2766277727CB0197F908950E9446
:10069000FA0208F48FEF08950E945F030C94D003D0
:1006A0000E94C20338F00E94C90320F0952311F084
:1006B0000C94B9030C94BF0311240C9441030E94C1
:1006C0001E0370F3959FC1F3950F50E0551F629F75
:1006D000F001729FBB27F00DB11D639FAA27F00D9B
:1006E000B11DAA1F649F6627B00DA11D661F829FC2
:1006F0002227B00DA11D621F739FB00DA11D621FA7
:10070000839FA00D611D221F749F3327A00D611DC3
:10071000231F849F600D211D822F762F6A2F1124A5
:100720009F5750409AF0F1F088234AF0EE0FFF1FD8
:10073000BB1F661F771F881F91505040A9F79E3F2F
:10074000510580F00C94B9030C9441035F3FE4F32E
:10075000983ED4F3869577956795B795F795E79585
:100760009F5FC1F7FE2B880F911D9695879597F98E
:10077000089597F99F6780E870E060E008959FEF23
:1007800080EC089500240A94161617061806090628
:10079000089500240A9412161306140605060895F7
:1007A000092E0394000C11F4882352F0BB0F40F47F
:1007B000BF2B11F460FF04C06F5F7F4F8F4F9F4FBF
:0607C0000895F894FFCF3C
:00000001FF
