:100000000C9434000C9451000C9451000C94510049
:100010000C9451000C9451000C9451000C9451001C
:100020000C9451000C9451000C9451000C9451000C
:100030000C9451000C9451000C9451000C945100FC
:100040000C9451000C9451000C9451000C945100EC
:100050000C9451000C9451000C9451000C945100DC
:100060000C9451000C94510011241FBECFEFD8E026
:10007000DEBFCDBF11E0A0E0B1E0E4E0F1E102C0FD
:1000800005900D92AA31B107D9F711E0AAE1B1E0CC
:1000900001C01D92AC31B107E1F70E94BE020C9481
:1000A00080080C940000DF93CF93CDB7DEB788E2D1
:1000B00090E00E946500ACEBB0E0ECEBF0E08081FA
:1000C00084608C93CF91DF910895DF93CF9300D01C
:1000D00000D00F92CDB7DEB79B838A83A9EBB0E047
:1000E000E9EBF0E080818E7F8C93A9EBB0E0E9EB47
:1000F000F0E080818D7F8C9380EA9FE02A813B81B4
:10010000B9010E948105CB01898389818031A0F0EA
:100110008981882F90E040979D838C838C819D817D
:1001200099232CF48C819D8101969D838C838C81F5
:100130009D81959587958983E8EBF0E0898180839F
:100140000F900F900F900F900F90CF91DF91089527
:10015000DF93CF93CDB7DEB7A7E2B0E0E7E2F0E000
:10016000808180618C93ECEBF0E084EA8083CF9116
:10017000DF910895DF93CF93CDB7DEB7ECEBF0E0DE
:1001800084E98083CF91DF910895DF93CF9300D0EE
:10019000CDB7DEB71A82198205C089819A8101968E
:1001A0009A838983ECEBF0E0808188232CF08981AD
:1001B0009A818A3591058CF30F900F90CF91DF9142
:1001C0000895DF93CF930F92CDB7DEB7898381E097
:1001D00090E00E943001A7E2B0E0E7E2F0E0808129
:1001E00080618C93EBEBF0E089818083ECEBF0E0B5
:1001F00084E880830F90CF91DF910895DF93CF93B0
:100200000F92CDB7DEB789838981882349F0ACEBA3
:10021000B0E0ECEBF0E080818F70806C8C9308C0D4
:10022000ACEBB0E0ECEBF0E080818F7080688C93F9
:100230000F90CF91DF910895DF93CF93CDB7DEB7C5
:10024000EBEBF0E08081CF91DF910895DF93CF93C6
:10025000CDB7DEB7E9EBF0E08081CF91DF91089573
:10026000DF93CF9300D000D0CDB7DEB79C838B83D4
:1002700016C01A820CC0198204C0000089818F5FE9
:10028000898389818630C8F38A818F5F8A838A81D6
:100290008A3588F38B819C8101979C838B838B812A
:1002A0009C81009731F70F900F900F900F90CF9196
:1002B000DF910895DF93CF93CDB7DEB7E5ECF0E0A3
:1002C0001082E4ECF0E083E38083A2ECB0E0E2ECA7
:1002D000F0E0808186608C93A1ECB0E0E1ECF0E08E
:1002E000808188618C93AAE2B0E0EAE2F0E080814C
:1002F0008E7F8C93ABE2B0E0EBE2F0E08081816036
:100300008C93CF91DF910895DF93CF9300D00F921C
:10031000CDB7DEB79A838983E0ECF0E08081882353
:1003200014F01B8208C0E6ECF0E08081E981FA81DC
:10033000808381E08B838B810F900F900F90CF9102
:10034000DF910895DF93CF9300D0CDB7DEB78983D7
:10035000E0ECF0E08081882F90E080729070009750
:1003600011F41A8206C0E6ECF0E08981808381E016
:100370008A838A810F900F90CF91DF910895DF9348
:10038000CF9300D000D0CDB7DEB79A8389836B833B
:1003900089819A81009729F410921A0181E08C8357
:1003A0002AC090911A018B81981761F080911A01EF
:1003B000282F30E089819A81FC01E20FF31F8081B0
:1003C000882329F410921A0181E08C8314C0809153
:1003D0001A01282F30E089819A81FC01E20FF31F76
:1003E00080810E94A201882329F080911A018F5FE9
:1003F00080931A011C828C810F900F900F900F90A8
:10040000CF91DF910895DF93CF9300D000D00F926A
:10041000CDB7DEB79B838A836C838A819B810097EB
:1004200029F410921B0181E08D8347C080911B014C
:10043000282F30E08C81882F90E00197281739070A
:1004400079F480911B01282F30E08A819B81FC0187
:10045000E20FF31F108210921B0181E08D832DC0EB
:10046000CE0101960E948401882331F189818D306B
:1004700019F089818A3079F480911B01282F30E0AE
:100480008A819B81FC01E20FF31F108210921B01F5
:1004900081E08D8312C040911B01242F30E08A81BE
:1004A0009B81FC01E20FF31F89818083842F8F5F82
:1004B00080931B011D8201C01D828D810F900F90C2
:1004C0000F900F900F90CF91DF910895DF93CF930E
:1004D00000D000D000D0CDB7DEB78C837E836D8393
:1004E0008C819AE0692F0E947505892F8B839C81EE
:1004F0008B81292F281B822F8C838C819AE0692F76
:100500000E9475059AE0692F0E947505892F8A83DC
:100510008A81882F90E09C01220F331FC901880F28
:10052000991F880F991F820F931F909581959F4F58
:10053000982F8C81890F8C8319828C81882311F0EC
:1005400081E089838981805DED81FE8180838D8159
:100550009E81FC0131968A81805D80838D819E81A0
:10056000FC0132968B81805D808326960FB6F894CD
:10057000DEBF0FBECDBFCF91DF910895DF93CF9344
:10058000CDB7DEB7CE56D0400FB6F894DEBF0FBE63
:10059000CDBF0E9453000E945A0184E690E00E9461
:1005A00030018EE360E80E947F0385E160E00E94F5
:1005B0007F0386E169E10E947F0387E165E00E9495
:1005C0007F038EE360E00E947F0388EE93E00E9449
:1005D00030011A868AE090E09E012F5F3F4FB901FB
:1005E0000E94C30389819A8184969A8389838B812F
:1005F0009C8141979C838B838D819E810E969E83E7
:100600008D8329813A814B815C816D817E818DB79B
:100610009EB70A970FB6F8949EBF0FBE8DBFEDB779
:10062000FEB73196CE010B969183808380E091E0F6
:1006300093838283358324835783468371876087BE
:100640000E94A8058DB79EB70A960FB6F8949EBF74
:100650000FBE8DBFCE010B966FEF0E94BF018823A6
:10066000C9F38AE090E00E943001B4CFDF93CF93CA
:1006700000D0CDB7DEB78A83ACEBB0E0ECEBF0E0B6
:1006800080818B7F8C93ACEBB0E0ECEBF0E0808171
:1006900084608C930E94A8000E94C50082ED0E9495
:1006A000E1000E94C5008A810E94E1000E94C5000D
:1006B0000E94A80083ED0E94E1000E94C50080E036
:1006C0000E94FE000E94C5000E941C0189830E94B6
:1006D000C5000E94BA00ACEBB0E0ECEBF0E080812A
:1006E0008B7F8C93ACEBB0E0ECEBF0E0808184602E
:1006F0008C9389810F900F90CF91DF910895DF93B4
:10070000CF9300D0CDB7DEB789836A830E94A8005B
:100710000E94C50082ED0E94E1000E94C50089810F
:100720000E94E1000E94C5008A810E94E1000E94AF
:10073000C5000E94BA000F900F90CF91DF910895ED
:10074000DF93CF93CDB7DEB7CF91DF910895DF93DD
:10075000CF9300D0CDB7DEB7E9E2F0E08081882FFB
:1007600090E084709070009719F41A82198204C086
:1007700081E090E09A83898389819A810F900F901C
:10078000CF91DF910895EF92FF920F931F93DF9324
:10079000CF93CDB7DEB76D970FB6F894DEBF0FBE1F
:1007A000CDBF998B888B7B8B6A8B2DB73EB73D8FE6
:1007B0002C8F8DB79EB79D8B8C8B88899989880FDC
:1007C000991F2DB73EB7281B390B0FB6F8943EBFC3
:1007D0000FBE2DBF8DB79EB701969B8F8A8F8A8DD6
:1007E0009B8D00969B8F8A8F2A8D3B8D3F872E870E
:1007F00088899989880F991F2DB73EB7281B390B17
:100800000FB6F8943EBF0FBE2DBF8DB79EB70196B1
:10081000998F888F888D998D0096998F888F288DD4
:10082000398D3D872C8788899989880F991F2DB725
:100830003EB7281B390B0FB6F8943EBF0FBE2DBF35
:100840008DB79EB701969F8B8E8B8E899F89009660
:100850009F8B8E8B2E893F893B872A8718861F8224
:100860001E821D821C821B821A821982E7C08AE1C5
:100870000E943603992787FD9095817090700097AC
:10088000B1F319868FE10E943603898769817A81E5
:100890008985992787FD9095582F44272C853D857C
:1008A000CB01880F991FF901E80FF91F518340838D
:1008B000E980FA8089819A812C853D85880F991F6E
:1008C000F901E80FF91F0081118180E20E943603CF
:1008D000992787FD9095A801482B592B2C853D859C
:1008E000C701880F991FF901E80FF91F5183408351
:1008F000198681E20E943603898769817A81898518
:10090000992787FD9095582F44272A853B85CB0151
:10091000880F991FF901E80FF91F51834083E9807F
:10092000FA8089819A812A853B85880F991FF90170
:10093000E80FF91F0081118182E20E943603992796
:1009400087FD9095A801482B592B2A853B85C70127
:10095000880F991FF901E80FF91F51834083198609
:100960008DE10E943603898769817A81898599277B
:1009700087FD9095582F44272E853F85CB01880F02
:10098000991FF901E80FF91F51834083E980FA802C
:1009900089819A812E853F85880F991FF901E80F7B
:1009A000F91F008111818EE10E943603992787FD8E
:1009B0009095A801482B592B2E853F85C701880F9C
:1009C000991FF901E80FF91F5183408389819A81AA
:1009D0002E853F85880F991FF901E80FF91F2081A7
:1009E00031818F819885820F931F98878F838981AA
:1009F0009A812C853D85880F991FF901E80FF91F11
:100A0000208131818D819E81820F931F9E838D83F2
:100A100089819A812A853B85880F991FF901E80F02
:100A2000F91F208131818B819C81820F931F9C83D0
:100A30008B8389819A8101969A8389832889398950
:100A400089819A818217930708F411CF8F81988545
:100A500028893989B9010E949505CB0198878F8330
:100A60008D819E8128893989B9010E949505CB0124
:100A70009E838D838B819C8128893989B9010E944D
:100A80009505CB019C838B83EA89FB898F819885AF
:100A9000918380838A899B89FC0132968D819E8116
:100AA000918380838A899B89FC0134968B819C8108
:100AB000918380838C899D890FB6F8949EBF0FBE69
:100AC0008DBF2C8D3D8D0FB6F8943EBF0FBE2DBF50
:100AD0006D960FB6F894DEBF0FBECDBFCF91DF91FC
:100AE0001F910F91FF90EF900895991B79E004C03A
:100AF000991F961708F0961B881F7A95C9F780955D
:100B00000895AA1BBB1B51E107C0AA1FBB1FA61754
:100B1000B70710F0A61BB70B881F991F5A95A9F7A6
:100B200080959095BC01CD01089597FB092E07266D
:100B30000AD077FD04D0E5DF06D000201AF47095C6
:100B400061957F4F0895F6F7909581959F4F089591
:100B5000AEE0B0E0EEEAF5E00C9457080D891E898E
:100B600086E08C831A8309838FEF9FE79E838D83B2
:100B70009E01275E3F4FCE0101966F89788DA901B6
:100B80000E94CC052F813885020F131FF8011082B7
:100B90002E96E4E00C947308ABE0B0E0E2EDF5E0F3
:100BA0000C9449083C012B015A01FC011782168262
:100BB000838181FD03C06FEF7FEFC6C19AE0892E6C
:100BC0001E010894211C311CF3012381F20123FD35
:100BD000859123FF81912F01882309F4B2C18532C9
:100BE00039F423FD859123FF81912F01853229F46A
:100BF00090E0B3010E94BF07E7CF982FFF24EE24B7
:100C00009924FFE1FF15D0F09B3269F09C3228F463
:100C1000903259F0933291F40EC09D3249F09033E6
:100C200069F441E024C052E0F52A84E0F82A28C0A3
:100C300098E0F92A25C0E0E1FE2A22C0F7FC29C08D
:100C4000892F80538A3070F4F6FE05C0989C902C52
:100C50001124980E15C0E89CE02C1124E80EF0E257
:100C6000FF2A0EC09E3229F4F6FC6BC140E4F42A40
:100C700007C09C3619F450E8F52A02C0983649F4AA
:100C8000F20123FD959123FF91912F01992309F002
:100C9000B8CF892F8554833018F08052833038F4D0
:100CA00044E050E0A40EB51E5FE359830FC09336B5
:100CB00031F0933779F0933509F056C020C0F50133
:100CC0008081898342E050E0A40EB51E610101E0FD
:100CD00010E012C0F501C080D180F6FC03C06FEFB8
:100CE0007FEF02C0692D70E042E050E0A40EB51E17
:100CF000C6010E94B4078C015FE7F52214C0F5011C
:100D0000C080D180F6FC03C06FEF7FEF02C0692D79
:100D100070E042E050E0A40EB51EC6010E94A90793
:100D20008C0150E8F52AF3FE07C01AC080E290E07B
:100D3000B3010E94BF07EA948E2D90E008171907AF
:100D4000A8F30EC0F601F7FC8591F7FE81916F01C3
:100D500090E0B3010E94BF07E110EA9401501040F7
:100D60000115110579F7EAC0943611F0993669F545
:100D7000F7FE08C0F501208131814281538184E072
:100D800090E00AC0F501808191819C01442737FDE4
:100D90004095542F82E090E0A80EB91E9FE6F922FC
:100DA00057FF09C050954095309521953F4F4F4FC3
:100DB0005F4FE0E8FE2ACA01B901A1012AE030E054
:100DC0000E94EB07D82ED21840C0953729F41F2D6A
:100DD0001F7E2AE030E01DC01F2D197F9F3661F075
:100DE000903720F4983509F0ACC00FC0903739F037
:100DF000983709F0A6C004C028E030E00AC01061AE
:100E000014FD146020E130E004C014FD166020E100
:100E100032E017FF08C0F501608171818281938102
:100E200044E050E008C0F50180819181BC0180E080
:100E300090E042E050E0A40EB51EA1010E94EB0735
:100E4000D82ED2188FE7F82EF122F6FE0BC05EEFF7
:100E5000F522D91438F4F4FE07C0F2FC05C08FEE79
:100E6000F82202C01D2D01C0192DF4FE0DC0FE0197
:100E7000ED0DF11D8081803319F499EEF92208C03F
:100E80001F5FF2FE05C003C08F2D867809F01F5F3B
:100E90000F2DF3FC14C0F0FE0FC01E1510F09D2C9A
:100EA0000BC09D2C9E0C911A1E2D06C080E290E076
:100EB000B3010E94BF071F5F1E15C0F304C01E15BB
:100EC00010F4E11A01C0EE2404FF0FC080E390E0AB
:100ED000B3010E94BF0702FF1DC001FD03C088E7E8
:100EE00090E00EC088E590E00BC0802F867891F0EE
:100EF00001FF02C08BE201C080E2F7FC8DE290E0CE
:100F0000B3010E94BF0706C080E390E0B3010E94D6
:100F1000BF079A94D914C0F3DA94F101ED0DF11DD5
:100F2000808190E0B3010E94BF07DD20A9F706C0D1
:100F300080E290E0B3010E94BF07EA94EE20C1F77F
:100F400043CEF30166817781CB012B96E2E10C94CD
:100F50006508FC010590615070400110D8F780953C
:100F600090958E0F9F1F0895FC0161507040019075
:100F70000110D8F7809590958E0F9F1F08950F93BD
:100F80001F93CF93DF938C01EB018B8181FF1BC0FB
:100F900082FF0DC02E813F818C819D8128173907EA
:100FA00064F4E881F9810193F983E88306C0E88558
:100FB000F985802F0995892B31F48E819F810196C7
:100FC0009F838E8302C00FEF1FEFC801DF91CF9187
:100FD0001F910F910895FA01AA27283051F120316D
:100FE00081F1E8946F936E7F6E5F7F4F8F4F9F4FBD
:100FF000AF4FB1E03ED0B4E03CD0670F781F891FFF
:101000009A1FA11D680F791F8A1F911DA11D6A0FCC
:10101000711D811D911DA11D20D009F468943F917F
:101020002AE0269F11243019305D3193DEF6CF017E
:101030000895462F4770405D4193B3E00FD0C9F744
:10104000F6CF462F4F70405D4A3318F0495D31FDB1
:101050004052419302D0A9F7EACFB4E0A695979504
:10106000879577956795BA95C9F7009761057105DA
:1010700008959B01AC010A2E069457954795379524
:101080002795BA95C9F7620F731F841F951FA01D7E
:1010900008952F923F924F925F926F927F928F921C
:1010A0009F92AF92BF92CF92DF92EF92FF920F93F7
:1010B0001F93CF93DF93CDB7DEB7CA1BDB0B0FB601
:1010C000F894DEBF0FBECDBF09942A8839884888BE
:1010D0005F846E847D848C849B84AA84B984C88454
:1010E000DF80EE80FD800C811B81AA81B981CE0F4B
:1010F000D11D0FB6F894DEBF0FBECDBFED01089530
:04110000F894FFCF91
:10110400783A20252B643B20793A20252B643B2018
:0A1114007A3A20252B640D0A000032
:00000001FF
